:020000040800F2
:100000004804002019090008790900087909000846
:100010007909000879090008790900080000000042
:100020000000000000000000000000007909000846
:100030007909000800000000790900082D0E000869
:100040007909000879090008790900087909000888
:100050007909000879090008790900087909000878
:100060007909000879090008790900087909000868
:100070007909000879090008790900087909000858
:1000800079090008790900087909000800000000D2
:1000900000000000000000000000000079090008D6
:1000A0007909000879090008790900087909000828
:1000B0007909000879090008790900087909000818
:1000C0007909000879090008790900087909000808
:1000D00079090008AD1100087909000879090008BC
:1000E0007909000879090008790900080000000072
:1000F0000000000000000000000000000000000000
:1001000000000000000000000000000000000000EF
:1001100000000000000000007909000879090008CB
:100120005FF808F180B485B000AF786039600023D3
:10013000FB817B681B88FB817A682E4B9A4213D027
:100140007A682D4B9A420FD07B68B3F1804F0BD069
:100150007A682A4B9A4207D07A68294B9A4203D090
:100160007A68284B9A4208D1FB8923F07003FB81FF
:100170003B685A88FB891343FB817A68224B9A4279
:100180000CD07A68214B9A4208D0FB8923F4407343
:10019000FB813B68DA88FB891343FB817B68FA8922
:1001A0001A803B689A887B689A853B681A887B68C6
:1001B0001A857A680F4B9A420FD07A680E4B9A4292
:1001C0000BD07A68124B9A4207D07A68114B9A4248
:1001D00003D07A68104B9A4204D13B681B7A1A46C6
:1001E0007B681A867B6801229A821437BD465DF8C7
:1001F000047B7047002C01400034014000040040A3
:1002000000080040000C00400010004000140040B6
:1002100000400140004401400048014080B485B0E6
:1002200000AF7860396000237B810023FB810023CD
:10023000BB817B681B8C9BB223F001039AB27B6865
:100240001A847B681B8CFB817B689B88BB817B68E5
:100250001B8B7B817B8923F070037B817B8923F05F
:1002600003037B813B681A887B8913437B81FB896D
:1002700023F00203FB813B681A89FB891343FB814E
:100280003B685A88FB891343FB817A68244B9A4266
:100290000FD07A68234B9A420BD07A68224B9A424D
:1002A00007D07A68214B9A4203D07A68204B9A4251
:1002B00023D1FB8923F00803FB813B685A89FB8922
:1002C0001343FB81FB8923F00403FB813B689A887D
:1002D000FB891343FB81BB8923F48073BB81BB89FA
:1002E00023F40073BB813B689A89BB891343BB81AC
:1002F0003B68DA89BB891343BB817B68BA899A80E2
:100300007B687A891A833B68DA887B689A867B687F
:10031000FA891A841437BD465DF8047B704700BF24
:10032000002C0140003401400040014000440140E5
:100330000048014080B485B000AF78603960002388
:100340007B810023FB810023BB817B681B8C9BB2DC
:1003500023F010039AB27B681A847B681B8CFB81A4
:100360007B689B88BB817B681B8B7B817B8923F4AB
:10037000E0437B817B8923F440737B813B681B884E
:100380001B029AB27B8913437B81FB8923F02003F4
:10039000FB813B681B891B019AB2FB891343FB81DC
:1003A0003B685B881B019AB2FB891343FB817A6827
:1003B000224B9A4203D07A68214B9A422BD1FB8977
:1003C00023F08003FB813B685B891B019AB2FB89A8
:1003D0001343FB81FB8923F04003FB813B689B882F
:1003E0001B019AB2FB891343FB81BB8923F4806311
:1003F000BB81BB8923F40063BB813B689B899B0065
:100400009AB2BB891343BB813B68DB899B009AB2DC
:10041000BB891343BB817B68BA899A807B687A89E0
:100420001A833B68DA887B681A877B68FA891A84A2
:100430001437BD465DF8047B704700BF002C0140B7
:100440000034014080B485B000AF7860396000238B
:100450007B810023FB810023BB817B681B8C9BB2CB
:1004600023F480739AB27B681A847B681B8CFB81AF
:100470007B689B88BB817B689B8B7B817B8923F01E
:1004800070037B817B8923F003037B813B681A889F
:100490007B8913437B81FB8923F40073FB813B68D9
:1004A0001B891B029AB2FB891343FB813B685B8863
:1004B0001B029AB2FB891343FB817A68224B9A4252
:1004C00003D07A68214B9A422BD1FB8923F4006335
:1004D000FB813B685B891B029AB2FB891343FB815A
:1004E000FB8923F48063FB813B689B881B029AB2E3
:1004F000FB891343FB81BB8923F48053BB81BB89F8
:1005000023F40053BB813B689B891B019AB2BB89D2
:100510001343BB813B68DB891B019AB2BB89134340
:10052000BB817B68BA899A807B687A899A833B68A9
:10053000DA887B689A877B68FA891A841437BD4603
:100540005DF8047B704700BF002C0140003401407F
:1005500080B485B000AF786039600023BB81002390
:100560007B810023FB817B681B8C9BB223F480532F
:100570009AB27B681A847B681B8C7B817B689B8822
:10058000FB817B689B8BBB81BB8923F4E043BB81F0
:10059000BB8923F44073BB813B681B881B029AB262
:1005A000BB891343BB817B8923F400537B813B6868
:1005B0001B891B039AB27B8913437B813B685B8851
:1005C0001B039AB27B8913437B817A68124B9A4250
:1005D00003D07A68114B9A420AD1FB8923F48043F5
:1005E000FB813B689B899B019AB2FB891343FB818A
:1005F0007B68FA899A807B68BA899A833B68DA8833
:100600007B68A3F840207B687A891A841437BD463A
:100610005DF8047B704700BF002C014000340140AE
:1006200080B483B000AF78600B46FB70FB78002B82
:1006300008D07B681B889BB243F001039AB27B68A9
:100640001A8007E07B681B889BB223F001039AB2F3
:100650007B681A800C37BD465DF8047B704700BF8D
:1006600080B483B000AF78600B46FB70FB78002B42
:1006700008D07B681B889BB243F080039AB27B68EA
:100680001A8007E07B681B889BB223F080039AB234
:100690007B681A800C37BD465DF8047B704700BF4D
:1006A00080B485B000AF78600B467B800023FB816F
:1006B0007B681B8BFB81FB8923F00803FB81FA8994
:1006C0007B881343FB817B68FA891A831437BD4604
:1006D0005DF8047B704700BF80B485B000AF7860E0
:1006E0000B467B800023FB817B681B8BFB81FB8996
:1006F00023F40063FB817B881B029AB2FB891343BE
:10070000FB817B68FA891A831437BD465DF8047B48
:10071000704700BF80B485B000AF78600B467B8027
:100720000023FB817B689B8BFB81FB8923F0080303
:10073000FB81FA897B881343FB817B68FA899A8362
:100740001437BD465DF8047B704700BF80B485B0A8
:1007500000AF78600B467B800023FB817B689B8B1E
:10076000FB81FB8923F40063FB817B881B029AB227
:10077000FB891343FB817B68FA899A831437BD4652
:100780005DF8047B704700BF80B58EB000AF00F00D
:100790009BF84FF47A733B86474B1A68474BA3FB91
:1007A00002135B0D9BB2013B9BB2BB8500237B8692
:1007B0000023FB8507F12C0341481946FFF7B2FCE3
:1007C0006023BB830123FB8300237B840023BB8442
:1007D00007F11C033A481946FFF720FD3848082165
:1007E000FFF75EFF07F11C0335481946FFF7A2FD2E
:1007F00033480821FFF770FF07F11C033048194602
:10080000FFF720FE2E480821FFF784FF07F11C03A5
:100810002B481946FFF79CFE29480821FFF796FF51
:1008200027480121FFF71CFF25480121FFF7F8FEAB
:100830004BF68033BB82204B1A68224BA3FB02137A
:100840001B0D9BB2013B9BB23B820023FB8200232A
:100850007B8207F110034FF080401946FFF762FCDE
:1008600060233B8001237B8040F6C413FB80002380
:100870003B813B464FF080401946FFF7CFFC4FF0DD
:1008800080400821FFF70CFF3B464FF0804019469F
:10089000FFF750FD4FF080400821FFF71DFF4FF09C
:1008A00080400121FFF7DCFE4FF080400121FFF77F
:1008B000B7FE3837BD4680BD00000020819F5E1620
:1008C00000040040851DD96F80B582B000AF0120C3
:1008D000012100F04DFC0220012100F049FC0D2017
:1008E000012100F027FCC323BB801823FB710323E5
:1008F000BB713B1D0648194600F022F90323BB805B
:100900003B1D0448194600F01BF90837BD4680BD61
:1009100000080140000C014080B582B000AF114BCF
:100920007B60114B3B6007E03B681A1D3A607A68B8
:10093000111D796012681A603A680C4B9A42F3D321
:100940000B480C494FF000028842B8BF40F8042B16
:10095000FFF6FAAF00F014F800F012FA0837BD46BF
:1009600080BD00BF241700080000002030000020D8
:10097000300000204800002080B400AFFEE700BF38
:1009800080B500AF164B164A126842F001021A6099
:10099000134A134B5968134B0B405360104A104BCA
:1009A0001B6823F0847323F4803313600C4B0C4AD0
:1009B000126822F480221A60094B094A526822F414
:1009C000FE025A60064B4FF41F029A60044B00224D
:1009D000DA6200F00BF8044B4FF000629A6080BDC1
:1009E000001002400000FFF800ED00E080B500AF0D
:1009F00000F002F880BD00BF80B483B000AF0023D8
:100A00007B6000233B60304B2F4A126842F48032F7
:100A10001A602D4B1B6803F400333B607B68013385
:100A20007B603B68002B03D17B68B3F5A06FF0D1EE
:100A3000254B1B6803F40033002B02D001233B60DD
:100A400001E000233B603B68012B37D11E4B1E4A5F
:100A500052685A601C4B1C4A52685A601A4B1A4A18
:100A600052685A60184B184A526822F47C125A6035
:100A7000154B154A526842F498125A60124B124AAA
:100A8000126842F080721A6000BF0F4B1B6803F0BF
:100A90000073002BF9D00C4B0B4A526822F0030272
:100AA0005A60094B084A526842F002025A6000BF7D
:100AB000054B5B6803F00C03082BF9D10C37BD46DE
:100AC0005DF8047B704700BF0010024080B500AFA6
:100AD00000F004F800F00AF880BD00BF80B500AF58
:100AE0000420012100F026FB80BD00BF80B582B04C
:100AF00000AF4FF40073BB801823FB710323BB715D
:100B00003B1D0E48194600F01BF84FF48063BB8074
:100B10000423FB713B1D0948194600F011F810230E
:100B2000FB710323BB714FF40063BB803B1D034883
:100B3000194600F005F80837BD4680BD00080140A1
:100B400080B489B000AF786039600023FB61002376
:100B50003B610023BB610023FB6000237B6100231A
:100B6000BB603B68DB7803F00F03FB613B68DB781D
:100B700003F01003002B04D03B689B78FA69134301
:100B8000FB613B681B88DBB2002B44D07B681B6891
:100B90007B610023BB6138E0BB69012202FA03F3E9
:100BA000FB603B681B881A46FB6813403B613A694F
:100BB000FB689A4226D1BB699B00FB60FB680F2251
:100BC00002FA03F3BB60BB68DB437A6913407B61C5
:100BD000FB68FA6902FA03F37A6913437B613B68A5
:100BE000DB78282B05D1BB6901229A407B685A61CA
:100BF00008E03B68DB78482B04D1BB6901229A40AE
:100C00007B681A61BB690133BB61BB69072BC3D920
:100C10007B687A691A603B681B88FF2B46D97B6822
:100C20005B687B610023BB613AE0BB69083301224A
:100C300002FA03F3FB603B681B881A46FB6813400B
:100C40003B613A69FB689A4227D1BB699B00FB6014
:100C5000FB680F2202FA03F3BB60BB68DB437A69CF
:100C600013407B61FB68FA6902FA03F37A69134364
:100C70007B613B68DB78282B05D1BB6908330122F7
:100C80009A407B685A613B68DB78482B05D1BB6989
:100C9000083301229A407B681A61BB690133BB614A
:100CA000BB69072BC1D97B687A695A602437BD4676
:100CB0005DF8047B704700BF80B483B000AF7860FC
:100CC00013460A467A807B707B78002B03D07A88A3
:100CD0007B681A6102E07A887B685A610C37BD46EE
:100CE0005DF8047B704700BF80B483B000AF03465B
:100CF0003960FB7197F90730002B0BDA0D49FB794E
:100D000003F00F03043B3A68D2B21201D2B20B4493
:100D10001A7609E0084997F907303A68D2B2120109
:100D2000D2B20B4483F800230C37BD465DF8047B38
:100D3000704700BF00ED00E000E100E080B582B048
:100D400000AF78607B68B3F1807F01D3012311E0AD
:100D50000A4B7A6822F07F42013A5A604FF0FF3026
:100D60000F21FFF7C1FF054B00229A60034B0722BA
:100D70001A60002318460837BD4680BD10E000E029
:100D800080B584B000AF1020012100F0D3F94FF4FA
:100D90004C73BB801023FB710323BB713B1D2048A8
:100DA0001946FFF7CDFE0420012100F0C3F93023DE
:100DB000BB803B1D1B481946FFF7C2FEFFF786FEAE
:100DC00000F0ACFAFFF7E0FC00F0E6F800237B81CE
:100DD000154B9B8C3B81124B114AD26882F4807276
:100DE000DA60114B9B8C9BB2002B08D10E4B9B8C75
:100DF0003B810B4B0A4AD26882F48072DA6000238E
:100E0000FB6002E0FB680133FB60FB68B3F5803FE9
:100E1000F8DB034B024AD26882F40072DA60E0E742
:100E20000010014000080140002C014080B582B054
:100E300000AF012000F05CFA03467B607B687D2BED
:100E40000CDD514810210122FFF736FF4F4B7A6825
:100E50007D3A92B2D20092B29A8613E07B687C2BE4
:100E60000DDC494810210022FFF726FF474B7A6826
:100E7000C2F17D0292B2D20092B29A8602E0434B56
:100E800000229A86002000F033FA03467B607B68DC
:100E90007D2B08DD7B68A3F17D023D4B1B681A4466
:100EA0003B4B1A600AE07B687C2B07DC7B68A3F174
:100EB0007D02374B1B681A44354B1A60344B1B6854
:100EC000B3F5AF5F03DD324B4FF4AF521A60304BD6
:100ED0001B68B3F5E16F03DA2D4B4FF4E1621A6042
:100EE0004FF080432A4A126892B29A86022000F09C
:100EF000FFF903467B607B687D2B0CDD22482021B7
:100F00000122FFF7D9FE214B7A687D3A92B2D200D6
:100F100092B21A8713E07B687C2B0DDC1A482021E3
:100F20000022FFF7C9FE194B7A68C2F17D0292B226
:100F3000D20092B21A8702E0144B00221A870520D1
:100F400000F0D6F903467B607B68072B09D1114876
:100F500010210122FFF7B0FE0C4B4FF47A729A87F2
:100F60000FE07B68092B09D10A4810210022FFF706
:100F7000A3FE064B4FF47A729A8702E0034B0022DD
:100F80009A870837BD4680BD000801400004004034
:100F9000140000200010014080B582B000AFFF2394
:100FA0003B7100237B710023BB7101233B713B1D0F
:100FB000184600F057FB064B1A68064BA3FB0213BA
:100FC0001B091846FFF7BAFE0837BD4680BD00BFB3
:100FD00000000020CDCCCCCC80B489B000AF7860CC
:100FE0000023FB610023BB6100237B6100233B6185
:100FF0000023FB604A4B5B6803F00C03FB61FB6959
:10100000042B07D0082B09D0002B2FD17B68454A31
:101010001A602FE07B68434A1A602BE0404B5B6804
:1010200003F47013BB613E4B5B6803F480337B6158
:10103000BB699B0C0233BB617B69002B06D1BB698A
:10104000394A02FB03F27B681A6013E0344BDB6A17
:1010500003F00F030133FB60324AFB68B2FBF3F38A
:10106000BA6902FB03F27B681A6003E07B682D4AD1
:101070001A6000BF2A4B5B6803F0F003FB61FB6959
:101080001B09FB61294AFB6913441B78DBB23B61F6
:101090007B681A683B69DA407B685A60204B5B6862
:1010A00003F4E063FB61FB691B0AFB611F4AFB69F8
:1010B00013441B78DBB23B617B685A683B69DA40BA
:1010C0007B689A60164B5B6803F46053FB61FB69B5
:1010D000DB0AFB61154AFB6913441B78DBB23B61F9
:1010E0007B685A683B69DA407B68DA600C4B5B6866
:1010F00003F44043FB61FB699B0BFB610C4AFB69FA
:1011000013441B78DBB23B617B68DA683B69B2FB56
:10111000F3F27B681A612437BD465DF8047B7047A3
:101120000010024000127A0000093D001800002063
:101130002800002080B483B000AF78600B46FB70BD
:10114000FB78002B06D0094B084A91697A680A435C
:101150009A6106E0054B054A91697A68D2430A40D4
:101160009A610C37BD465DF8047B70470010024061
:1011700080B483B000AF78600B46FB70FB78002B27
:1011800006D0094B084AD1697A680A43DA6106E059
:10119000054B054AD1697A68D2430A40DA610C37B7
:1011A000BD465DF8047B70470010024080B582B0F8
:1011B00000AF474B1B889BB203F02003002B29D0C4
:1011C000434800F023FA03467B60424B1B781A46E3
:1011D0007B689A4206D1404B01221A703F4B002295
:1011E0001A7017E03E4B1B781A467B689A4203D16F
:1011F0003C4B01221A700DE0374B1B78002B09D0B5
:10120000364B1B785A1CD1B2344A11707A68D1B26D
:10121000354AD154334B1B78002B56D033484FF40A
:1012200000610122FFF748FD00BF2948402100F07E
:10123000FDF90346002BF8D0264B1B7824481946AD
:1012400000F0D2F900BF2248402100F0EFF9034638
:10125000002BF8D0214B00221A7015E01F4B1B7891
:10126000214AD35C1A48194600F0BEF900BF18485D
:10127000402100F0DBF90346002BF8D0174B1B7818
:101280000133DAB2154B1A70144B1B78052BE5D9D4
:10129000134B1B780E48194600F0A6F900BF0C4806
:1012A000402100F0C3F90346002BF8D00F484FF45B
:1012B00000610022FFF700FD074B00221A70094B66
:1012C00000221A70054B00221A700837BD4680BDF7
:1012D000003801402C0000203000002032000020A7
:1012E0002D000020310000203400002000080140C3
:1012F00080B483B000AF0346FB71FB790A2B01D9A0
:10130000002302E0FB79044AD35C18460C37BD4643
:101310005DF8047B704700BF3400002080B500AF4B
:101320004FF480400121FFF705FF00F003F800F0C3
:101330001FF880BD80B584B000AF4FF4FA333B6036
:101340000023BB800023FB8000233B810023BB8163
:101350000C237B813B460548194600F023F80348DF
:10136000012100F0D9F81037BD4680BD003801409A
:1013700080B582B000AF25233B7100237B71002331
:10138000BB710123FB713B1D184600F06BF904484B
:1013900040F22551012200F0DFF80837BD4680BD3C
:1013A0000038014080B58CB000AF78603960002310
:1013B000FB620023BB6200237B6200233B620023AD
:1013C000FB617B68FB617B681B8A9BB2FB62FA6AEC
:1013D0004CF6FF731340FB623B68DB88FA6A1343E9
:1013E000FB62FB6A9AB27B681A827B689B899BB21C
:1013F000FB62FA6A4EF6F3131340FB623B689A886D
:101400003B681B8913439AB23B685B8913439BB2C9
:10141000FA6A1343FB62FB6A9AB27B689A817B6823
:101420009B8A9BB2FB62FA6A4FF6FF431340FB6252
:101430003B689B89FA6A1343FB62FB6A9AB27B683A
:101440009A8207F108031846FFF7C6FDFA69304B88
:101450009A4202D17B69BB6201E03B69BB627B6857
:101460009B899BB29BB21BB2002B0CDABA6A134663
:101470009B0013449A001A443B681B685B00B2FB54
:10148000F3F37B620BE0BA6A13469B0013449A00A5
:101490001A443B681B689B00B2FBF3F37B627A6AD9
:1014A0001C4BA3FB02135B091B01FB62FB6A1B09BC
:1014B000642202FB03F37A6AD31A3B627B689B893E
:1014C0009BB29BB21BB2002B0DDA3B6ADB0003F12F
:1014D0003202104BA3FB02135B0903F00703FA6A05
:1014E0001343FB620CE03B6A1B0103F13202094B20
:1014F000A3FB02135B0903F00F03FA6A1343FB62B9
:10150000FB6A9AB27B681A813037BD4680BD00BF46
:10151000003801401F85EB5180B483B000AF786084
:101520000B46FB70FB78002B08D07B689B899BB235
:1015300043F400539AB27B689A8107E07B689B89E9
:101540009BB223F400539AB27B689A810C37BD4654
:101550005DF8047B704700BF80B487B000AF78604F
:1015600013460A467A807B7000233B610023FB60B0
:101570000023BB6000237B617B687B617B88DBB2DF
:101580005B09DBB23B617B8803F01F03FB60FB68F8
:10159000012202FA03F3BB603B69012B03D17B6993
:1015A0000C337B6109E03B69022B03D17B6910336B
:1015B0007B6102E07B6914337B617B78002B06D072
:1015C0007B697A691168BA680A431A6006E07B6928
:1015D0007A691168BA68D2430A401A601C37BD465E
:1015E0005DF8047B704700BF80B483B000AF7860C3
:1015F0000B467B807B88C3F308039AB27B689A8092
:101600000C37BD465DF8047B704700BF80B483B0E3
:1016100000AF78607B689B889BB2C3F308039BB2E2
:1016200018460C37BD465DF8047B704780B485B022
:1016300000AF78600B467B800023FB737B681B88C0
:101640009AB27B8813409BB2002B02D00123FB731C
:1016500001E00023FB73FB7B18461437BD465DF8A1
:10166000047B704780B487B000AF786000237B6153
:1016700000233B610F23FB607B68DB78002B38D0B5
:10168000264BDB68DB4303F4E0631B0A7B617B6969
:10169000C3F104033B617B69FA6822FA03F3FB6040
:1016A0007B685B781A463B6902FA03F37B617B68CF
:1016B0009B781A46FB6813407A6913437B617B6908
:1016C0001B017B6116497B681B787A69D2B20B4497
:1016D00083F80023124B7A6812785209D2B27968E3
:1016E000097801F01F01012000FA01F143F82210EE
:1016F0000EE00B4B7A6812785209D2B279680978F9
:1017000001F01F01012000FA01F1203243F82210FC
:101710001C37BD465DF8047B704700BF00ED00E05C
:0417200000E100E004
:1017240000366E0100000000000000000102030406
:1017340006070809B80B00000000000001020304BA
:10174400010203040607080902040608FFFB00005F
:0400000508000000EF
:00000001FF
