:020000040800F2
:10000000B004002089070008E9070008E907000894
:10001000E9070008E9070008E907000800000000F8
:10002000000000000000000000000000E9070008D8
:10003000E907000800000000E90700086D16000845
:10004000E9070008E9070008E9070008E9070008D0
:10005000E9070008E9070008E9070008E9070008C0
:10006000E9070008E9070008E9070008E9070008B0
:10007000E9070008E9070008E9070008E9070008A0
:10008000E9070008E9070008E90700080000000088
:10009000000000000000000000000000E907000868
:1000A000E9070008E9070008E9070008E907000870
:1000B000E9070008E9070008E9070008E907000860
:1000C000E9070008E9070008E9070008E907000850
:1000D000E9070008E9070008E9070008E907000840
:1000E000E9070008E9070008E90700080000000028
:1000F0000000000000000000000000000000000000
:1001000000000000000000000000000000000000EF
:100110000000000000000000E9070008E9070008EF
:100120005FF808F180B485B000AF786039600023D3
:10013000FB817B681B88FB817A682E4B9A4213D027
:100140007A682D4B9A420FD07B68B3F1804F0BD069
:100150007A682A4B9A4207D07A68294B9A4203D090
:100160007A68284B9A4208D1FB8923F07003FB81FF
:100170003B685A88FB891343FB817A68224B9A4279
:100180000CD07A68214B9A4208D0FB8923F4407343
:10019000FB813B68DA88FB891343FB817B68FA8922
:1001A0001A803B689A887B689A853B681A887B68C6
:1001B0001A857A680F4B9A420FD07A680E4B9A4292
:1001C0000BD07A68124B9A4207D07A68114B9A4248
:1001D00003D07A68104B9A4204D13B681B7A1A46C6
:1001E0007B681A867B6801229A821437BD465DF8C7
:1001F000047B7047002C01400034014000040040A3
:1002000000080040000C00400010004000140040B6
:1002100000400140004401400048014080B485B0E6
:1002200000AF7860396000237B810023FB810023CD
:10023000BB817B681B8C9BB223F001039AB27B6865
:100240001A847B681B8CFB817B689B88BB817B68E5
:100250001B8B7B817B8923F070037B817B8923F05F
:1002600003037B813B681A887B8913437B81FB896D
:1002700023F00203FB813B681A89FB891343FB814E
:100280003B685A88FB891343FB817A68244B9A4266
:100290000FD07A68234B9A420BD07A68224B9A424D
:1002A00007D07A68214B9A4203D07A68204B9A4251
:1002B00023D1FB8923F00803FB813B685A89FB8922
:1002C0001343FB81FB8923F00403FB813B689A887D
:1002D000FB891343FB81BB8923F48073BB81BB89FA
:1002E00023F40073BB813B689A89BB891343BB81AC
:1002F0003B68DA89BB891343BB817B68BA899A80E2
:100300007B687A891A833B68DA887B689A867B687F
:10031000FA891A841437BD465DF8047B704700BF24
:10032000002C0140003401400040014000440140E5
:100330000048014080B485B000AF78603960002388
:100340007B810023FB810023BB817B681B8C9BB2DC
:1003500023F010039AB27B681A847B681B8CFB81A4
:100360007B689B88BB817B681B8B7B817B8923F4AB
:10037000E0437B817B8923F440737B813B681B884E
:100380001B029AB27B8913437B81FB8923F02003F4
:10039000FB813B681B891B019AB2FB891343FB81DC
:1003A0003B685B881B019AB2FB891343FB817A6827
:1003B000224B9A4203D07A68214B9A422BD1FB8977
:1003C00023F08003FB813B685B891B019AB2FB89A8
:1003D0001343FB81FB8923F04003FB813B689B882F
:1003E0001B019AB2FB891343FB81BB8923F4806311
:1003F000BB81BB8923F40063BB813B689B899B0065
:100400009AB2BB891343BB813B68DB899B009AB2DC
:10041000BB891343BB817B68BA899A807B687A89E0
:100420001A833B68DA887B681A877B68FA891A84A2
:100430001437BD465DF8047B704700BF002C0140B7
:100440000034014080B485B000AF7860396000238B
:100450007B810023FB810023BB817B681B8C9BB2CB
:1004600023F480739AB27B681A847B681B8CFB81AF
:100470007B689B88BB817B689B8B7B817B8923F01E
:1004800070037B817B8923F003037B813B681A889F
:100490007B8913437B81FB8923F40073FB813B68D9
:1004A0001B891B029AB2FB891343FB813B685B8863
:1004B0001B029AB2FB891343FB817A68224B9A4252
:1004C00003D07A68214B9A422BD1FB8923F4006335
:1004D000FB813B685B891B029AB2FB891343FB815A
:1004E000FB8923F48063FB813B689B881B029AB2E3
:1004F000FB891343FB81BB8923F48053BB81BB89F8
:1005000023F40053BB813B689B891B019AB2BB89D2
:100510001343BB813B68DB891B019AB2BB89134340
:10052000BB817B68BA899A807B687A899A833B68A9
:10053000DA887B689A877B68FA891A841437BD4603
:100540005DF8047B704700BF002C0140003401407F
:1005500080B485B000AF786039600023BB81002390
:100560007B810023FB817B681B8C9BB223F480532F
:100570009AB27B681A847B681B8C7B817B689B8822
:10058000FB817B689B8BBB81BB8923F4E043BB81F0
:10059000BB8923F44073BB813B681B881B029AB262
:1005A000BB891343BB817B8923F400537B813B6868
:1005B0001B891B039AB27B8913437B813B685B8851
:1005C0001B039AB27B8913437B817A68124B9A4250
:1005D00003D07A68114B9A420AD1FB8923F48043F5
:1005E000FB813B689B899B019AB2FB891343FB818A
:1005F0007B68FA899A807B68BA899A833B68DA8833
:100600007B68A3F840207B687A891A841437BD463A
:100610005DF8047B704700BF002C014000340140AE
:1006200080B483B000AF78600B46FB70FB78002B82
:1006300008D07B681B889BB243F001039AB27B68A9
:100640001A8007E07B681B889BB223F001039AB2F3
:100650007B681A800C37BD465DF8047B704700BF8D
:1006600080B483B000AF78600B46FB70FB78002B42
:1006700008D07B681B889BB243F080039AB27B68EA
:100680001A8007E07B681B889BB223F080039AB234
:100690007B681A800C37BD465DF8047B704700BF4D
:1006A00080B485B000AF78600B467B800023FB816F
:1006B0007B681B8BFB81FB8923F00803FB81FA8994
:1006C0007B881343FB817B68FA891A831437BD4604
:1006D0005DF8047B704700BF80B485B000AF7860E0
:1006E0000B467B800023FB817B681B8BFB81FB8996
:1006F00023F40063FB817B881B029AB2FB891343BE
:10070000FB817B68FA891A831437BD465DF8047B48
:10071000704700BF80B485B000AF78600B467B8027
:100720000023FB817B689B8BFB81FB8923F0080303
:10073000FB81FA897B881343FB817B68FA899A8362
:100740001437BD465DF8047B704700BF80B485B0A8
:1007500000AF78600B467B800023FB817B689B8B1E
:10076000FB81FB8923F40063FB817B881B029AB227
:10077000FB891343FB817B68FA899A831437BD4652
:100780005DF8047B704700BF80B582B000AF114BAD
:100790007B60114B3B6007E03B681A1D3A607A684A
:1007A000111D796012681A603A680C4B9A42F3D3B3
:1007B0000B480C494FF000028842B8BF40F8042BA8
:1007C000FFF6FAAF00F014F800F042FF0837BD461C
:1007D00080BD00BF14200008000000202800002079
:1007E00028000020AC00002080B400AFFEE700BF6E
:1007F00080B500AF164B164A126842F001021A602B
:10080000134A134B5968134B0B405360104A104B5B
:100810001B6823F0847323F4803313600C4B0C4A61
:10082000126822F480221A60094B094A526822F4A5
:10083000FE025A60064B4FF41F029A60044B0022DE
:10084000DA6200F00BF8044B4FF000629A6080BD52
:10085000001002400000FFF800ED00E080B500AF9E
:1008600000F002F880BD00BF80B483B000AF002369
:100870007B6000233B60304B2F4A126842F4803289
:100880001A602D4B1B6803F400333B607B68013317
:100890007B603B68002B03D17B68B3F5A06FF0D180
:1008A000254B1B6803F40033002B02D001233B606F
:1008B00001E000233B603B68012B37D11E4B1E4AF1
:1008C00052685A601C4B1C4A52685A601A4B1A4AAA
:1008D00052685A60184B184A526822F47C125A60C7
:1008E000154B154A526842F498125A60124B124A3C
:1008F000126842F080721A6000BF0F4B1B6803F051
:100900000073002BF9D00C4B0B4A526822F0030203
:100910005A60094B084A526842F002025A6000BF0E
:10092000054B5B6803F00C03082BF9D10C37BD466F
:100930005DF8047B704700BF0010024080B500AF37
:10094000134B04221A60124B41F2CC025A60104B36
:100950005A680F4B9A600E4B1A680D4B9B681046F5
:10096000194600F03DF90B4B01221A60094B40F685
:10097000C4125A60074B5A68064B9A60054B1A68B6
:10098000044B9B681046194600F02AF980BD00BF51
:10099000340000204000002080B582B000AF7860B5
:1009A00039607B68012B30D13B68022B11D0032BBF
:1009B0001DD0012B20D1304B9A6841F2AE539A42A0
:1009C00006DC2D4B9B6803F132022B4B9A6013E03F
:1009D00012E0294B9A6840F239739A4206DD264BA1
:1009E0009B68A3F13202244B9A6005E004E0224B9D
:1009F0005A68214B9A6000BF1F4B1A681E4B9B68B8
:100A00001046194600F0ECF832E07B68022B2FD13B
:100A10003B68022B11D0032B1DD0012B20D1174B8B
:100A20009A6841F2AE539A4206DC144B9B6803F17C
:100A30003202124B9A6013E012E0104B9A6840F2B7
:100A400039739A4206DD0D4B9B68A3F132020B4BC2
:100A50009A6005E004E0094B5A68084B9A6000BFB1
:100A6000064B1A68054B9B681046194600F0B8F80B
:100A70000837BD4680BD00BF340000204000002084
:100A800080B483B000AF78607B68012B0DD1134B2D
:100A90009B68A3F5E163FA2202FB03F3104A82FB91
:100AA00003129212DB17D31A11E07B68022B0DD1CF
:100AB0000C4B9B68A3F5E163FA2202FB03F3084A9F
:100AC00082FB03129212DB17D31A00E000231846B0
:100AD0000C37BD465DF8047B704700BF3400002032
:100AE000353AFC444000002080B500AF04200121CD
:100AF00000F016FF00F004F800F01AF880BD00BF07
:100B000080B582B000AF0920012100F0EBFE4FF468
:100B10007073BB801823FB710323BB713B1D03481B
:100B2000194600F08DF80837BD4680BD000C014025
:100B300080B588B000AF4BF680333B83254B1A68F5
:100B4000254BA3FB02131B0D9BB2013B9BB2BB8247
:100B500000237B830023FB8207F114031F481946FF
:100B6000FFF7E0FA6023BB800123FB8040F6C4134B
:100B70007B810023BB813B1D18481946FFF74EFBC4
:100B800016480821FFF78CFD3B1D14481946FFF756
:100B9000D1FB12480821FFF79FFD3B1D0F48194666
:100BA000FFF750FC0D480821FFF7B4FD3B1D0B4833
:100BB0001946FFF7CDFC09480821FFF7C7FD074894
:100BC0000121FFF74DFD05480121FFF729FD2037E1
:100BD000BD4680BD00000020851DD96F0008004083
:100BE00080B483B000AF786039607B68013B032B31
:100BF0001FD801A252F823F0090C0008130C0008BA
:100C00001D0C0008270C00080C4B3A6892B29A861B
:100C10000FE00A4B3A6892B21A870AE0074B3A682B
:100C200092B29A8705E0054B3A6892B2A3F8402049
:100C300000BF0C37BD465DF8047B704700080040DC
:100C400080B489B000AF786039600023FB61002375
:100C50003B610023BB610023FB6000237B61002319
:100C6000BB603B68DB7803F00F03FB613B68DB781C
:100C700003F01003002B04D03B689B78FA69134300
:100C8000FB613B681B88DBB2002B44D07B681B6890
:100C90007B610023BB6138E0BB69012202FA03F3E8
:100CA000FB603B681B881A46FB6813403B613A694E
:100CB000FB689A4226D1BB699B00FB60FB680F2250
:100CC00002FA03F3BB60BB68DB437A6913407B61C4
:100CD000FB68FA6902FA03F37A6913437B613B68A4
:100CE000DB78282B05D1BB6901229A407B685A61C9
:100CF00008E03B68DB78482B04D1BB6901229A40AD
:100D00007B681A61BB690133BB61BB69072BC3D91F
:100D10007B687A691A603B681B88FF2B46D97B6821
:100D20005B687B610023BB613AE0BB690833012249
:100D300002FA03F3FB603B681B881A46FB6813400A
:100D40003B613A69FB689A4227D1BB699B00FB6013
:100D5000FB680F2202FA03F3BB60BB68DB437A69CE
:100D600013407B61FB68FA6902FA03F37A69134363
:100D70007B613B68DB78282B05D1BB6908330122F6
:100D80009A407B685A613B68DB78482B05D1BB6988
:100D9000083301229A407B681A61BB690133BB6149
:100DA000BB69072BC1D97B687A695A602437BD4675
:100DB0005DF8047B704700BF80B483B000AF7860FB
:100DC00013460A467A807B707B78002B03D07A88A2
:100DD0007B681A6102E07A887B685A610C37BD46ED
:100DE0005DF8047B704700BF80B500AF01F06CF880
:100DF00001F0C2F800F08AFB80BD00BF80B500AFF3
:100E000000F012F800F034F800F0E6F800F096FA7E
:100E100000F040FB00F0DAF900F08AFA00F022F965
:100E200000F0CEF980BD00BF80B500AF0120FFF714
:100E300027FE0346DAB20B4BDA770220FFF720FEDB
:100E40000346DAB2074B83F82020074B9B8C9AB2FB
:100E5000064BA3FB02139B099BB2DAB2014B83F84A
:100E6000242080BD4C00002000100040D34D6210B3
:100E700080B582B000AF52484FF400610122FFF705
:100E80009BFF00BF4F48402100F064FE0346002B4B
:100E9000F8D04C48FF2100F03BFE00BF49484021FC
:100EA00000F058FE0346002BF8D0474B1E221A6074
:100EB00014E0454B1B68454AD35C4248194600F094
:100EC00027FE00BF3F48402100F044FE0346002BB0
:100ED000F8D03D4B1B685A1C3B4B1A603A4B1B68C1
:100EE000242BE6DD3748FB2100F012FE00BF354819
:100EF000402100F02FFE0346002BF8D030484FF47D
:100F000000610022FFF758FF314B9B8CFB80FA8871
:100F10002F4B9B8D9BB2A3F5FA739A4204DB0023FF
:100F2000FB802B4B00229A8400237B7100233B71B2
:100F300040E0274B9B8C9BB21A46FB8803F5FA7363
:100F40009A420ADB01233B71224B1B68591C214A40
:100F50001160022B01DD00F0EFFA1A4B1B889BB2E7
:100F600003F02003002B25D0164800F0E3FD0346D4
:100F70003B603B68FF2B05D101237B71124B0022A4
:100F80001A6017E03B68FB2B05D1124B00221A6058
:100F900001233B710EE07B79002B0BD03B68FB2BD0
:100FA00008D0094B1B68591C074A11603A68D1B236
:100FB000064AD1543B79002BBBD00837BD4680BDD3
:100FC00000080140003801402C0000204C000020A7
:100FD000001000402800002080B400AF1F4B00220A
:100FE0001A600DE01D4B1B682B331C4A12681C490C
:100FF000895C1B4AD154194B1B685A1C174B1A6049
:10100000164B1B68032BEDDD154B5A79144B83F8F7
:101010003320124B00221A600EE0104B1B68253360
:101020000E4A126806320E49895C0D4AD1540B4BA8
:101030001B685A1C094B1A60084B1B68032BECDD1C
:10104000074BDA7A064B83F82920054B1A79044BB3
:1010500083F82A20BD465DF8047B70472C000020F1
:101060004C00002080B582B000AF4F482021002204
:10107000FFF7A2FE4D4810210122FFF79DFE00BFA1
:101080004B48402100F066FD0346002BF8D048484D
:10109000FF2100F03DFD00BF4548402100F05AFD12
:1010A0000346002BF8D0434B25221A6014E0414B35
:1010B0001B68414AD35C3E48194600F029FD00BF39
:1010C0003B48402100F046FD0346002BF8D0394B49
:1010D0001B685A1C374B1A60364B1B682A2BE6DDFF
:1010E0003348FB2100F014FD00BF3148402100F0DF
:1010F00031FD0346002BF8D02C4810210022FFF7C9
:101100005BFE294820210122FFF756FE2B4B9B8CCA
:10111000FB80FA88294B9B8D9BB2A3F5FA739A4208
:1011200004DB0023FB80254B00229A8400237B7183
:1011300000233B7131E0214B9B8C9BB21A46FB880C
:1011400003F5FA739A4201DB01233B71184B1B88AC
:101150009BB203F02003002B1FD0154800F0EAFCDF
:1011600003463B603B68FF2B05D101237B71114B8C
:101170000D221A6011E03B68FB2B02D101233B7169
:101180000BE07B79002B08D00A4B1B68591C094ADD
:1011900011603A68D1B2084AD1543B79002BCAD0C9
:1011A0000837BD4680BD00BF001001400008014067
:1011B000004400402C0000204C00002000100040A3
:1011C00080B400AFBD465DF8047B704780B582B047
:1011D00000AF514820210122FFF7EEFD4E481021BB
:1011E0000022FFF7E9FD4D4810210122FFF7E4FD41
:1011F00000BF4B48402100F0ADFC0346002BF8D067
:101200004748FF2100F084FC00BF4548402100F022
:10121000A1FC0346002BF8D0424B2B221A6014E0AD
:10122000404B1B68404AD35C3D48194600F070FCB7
:1012300000BF3B48402100F08DFC0346002BF8D056
:10124000384B1B685A1C374B1A60364B1B68332BC4
:10125000E6DD3348FB2100F05BFC00BF3048402155
:1012600000F078FC0346002BF8D02B481021012217
:10127000FFF7A2FD294810210022FFF79DFD2B4B0F
:101280009B8CFB80FA88294B9B8D9BB2A3F5FA734C
:101290009A4204DB0023FB80244B00229A84002323
:1012A0007B7100233B7131E0204B9B8C9BB21A4633
:1012B000FB8803F5FA739A4201DB01233B71184B5B
:1012C0001B889BB203F02003002B1FD0144800F0B2
:1012D00031FC03463B603B68FF2B05D101237B714A
:1012E000104B13221A6011E03B68FB2B02D1012343
:1012F0003B710BE07B79002B08D00A4B1B68591C13
:10130000084A11603A68D1B2074AD1543B79002BA0
:10131000CAD00837BD4680BD00100140000801401A
:10132000004400402C0000204C0000200010004031
:1013300080B400AFBD465DF8047B704780B582B0D5
:1013400000AF4F4820210022FFF736FD4C48102106
:101350000122FFF731FD00BF4A48402100F0FAFBAF
:101360000346002BF8D04748FF2100F0D1FB00BF17
:101370004448402100F0EEFB0346002BF8D0424BDE
:1013800034221A6014E0404B1B68404AD35C3D484D
:10139000194600F0BDFB00BF3A48402100F0DAFBDF
:1013A0000346002BF8D0384B1B685A1C364B1A608A
:1013B000354B1B68342BE6DD3248FB2100F0A8FBDF
:1013C00000BF3048402100F0C5FB0346002BF8D099
:1013D0002B4810210022FFF7EFFC29482021012291
:1013E000FFF7EAFC2A4B9B8CFB80FA88284B9B8DED
:1013F0009BB2A3F5FA739A4204DB0023FB80244BD3
:1014000000229A8400237B7100233B7131E0204B42
:101410009B8C9BB21A46FB8803F5FA739A4201DB58
:1014200001233B71174B1B889BB203F02003002B59
:101430001FD0144800F07EFB03463B603B68FF2B47
:1014400005D101237B71104B1A221A6011E03B6811
:10145000FB2B02D101233B710BE07B79002B08D0E1
:10146000094B1B68591C084A11603A68D1B2074AF7
:10147000D1543B79002BCAD00837BD4680BD00BF90
:1014800000080140004400402C0000204C000020D7
:101490000010004080B400AF124B00221A6018E028
:1014A000104B1B682F330F4A12681A320E49895CA1
:1014B0000D4AD1540B4B1B6821330A4A12681A3269
:1014C0000949895C084AD154064B1B685A1C054BD4
:1014D0001A60044B1B68032BE2DDBD465DF8047BFC
:1014E000704700BF2C0000204C00002080B483B067
:1014F00000AF7860044A7B6813441B7818460C37A9
:10150000BD465DF8047B70474C00002080B500AFFD
:101510001020012100F004FA064B45F6BF521A854F
:10152000044B4FF6FF729A8502480121FFF778F8C5
:1015300080BD00BF0010004080B400AF1C4B0022F3
:101540001A6009E01A4B1B681A4A0021D154184B43
:101550001B685A1C164B1A60154B1B680C2BF1DDCF
:10156000134B2B221A6009E0114B1B68114A7D2195
:10157000D1540F4B1B685A1C0D4B1A600C4B1B6847
:101580002E2BF1DD0A4B25221A6009E0084B1B685F
:10159000084A7D21D154064B1B685A1C044B1A6023
:1015A000034B1B68282BF1DDBD465DF8047B7047BB
:1015B0002C0000204C00002080B483B000AF034614
:1015C0003960FB7197F90730002B0BDA0D49FB7975
:1015D00003F00F03043B3A68D2B21201D2B20B44BB
:1015E0001A7609E0084997F907303A68D2B2120131
:1015F000D2B20B4483F800230C37BD465DF8047B60
:10160000704700BF00ED00E000E100E080B582B06F
:1016100000AF78607B68B3F1807F01D3012311E0D4
:101620000A4B7A6822F07F42013A5A604FF0FF304D
:101630000F21FFF7C1FF054B00229A60034B0722E1
:101640001A60002318460837BD4680BD10E000E050
:1016500080B500AFFFF7C8FB00F098FAFFF744FA37
:10166000FFF76CF900F00AF8FEE700BF80B500AFA5
:10167000FFF7C4FB00F022F880BD00BF80B582B048
:1016800000AFFF233B7100237B710023BB7101235B
:101690003B713B1D184600F0B7FB064B1A68064B22
:1016A000A3FB02131B091846FFF7B0FF0837BD461E
:1016B00080BD00BF00000020CDCCCCCC80B500AFF9
:1016C0000520FFF713FF0346013B072B21D801A29A
:1016D00052F823F00917000809170008131700082B
:1016E000FF16000813170008131700081317000847
:1016F000F516000801200121FFF74EF909E001204D
:101700000221FFF749F904E001200321FFF744F922
:1017100000BF0520FFF7EAFE0346013B072B22D856
:1017200001A252F823F000BF5D1700085D17000802
:1017300067170008531700086717000867170008A5
:10174000671700084917000802200121FFF724F954
:1017500009E002200221FFF71FF904E00220032123
:10176000FFF71AF900BF0420FFF7C0FE0346042B61
:1017700005D0062B07D1032000F0B6FA03E00320C2
:1017800000F0C8FA00BF80BD80B489B000AF7860B7
:101790000023FB610023BB6100237B6100233B61CD
:1017A0000023FB604A4B5B6803F00C03FB61FB69A1
:1017B000042B07D0082B09D0002B2FD17B68454A7A
:1017C0001A602FE07B68434A1A602BE0404B5B684D
:1017D00003F47013BB613E4B5B6803F480337B61A1
:1017E000BB699B0C0233BB617B69002B06D1BB69D3
:1017F000394A02FB03F27B681A6013E0344BDB6A60
:1018000003F00F030133FB60324AFB68B2FBF3F3D2
:10181000BA6902FB03F27B681A6003E07B682D4A19
:101820001A6000BF2A4B5B6803F0F003FB61FB69A1
:101830001B09FB61294AFB6913441B78DBB23B613E
:101840007B681A683B69DA407B685A60204B5B68AA
:1018500003F4E063FB61FB691B0AFB611F4AFB6940
:1018600013441B78DBB23B617B685A683B69DA4002
:101870007B689A60164B5B6803F46053FB61FB69FD
:10188000DB0AFB61154AFB6913441B78DBB23B6141
:101890007B685A683B69DA407B68DA600C4B5B68AE
:1018A00003F44043FB61FB699B0BFB610C4AFB6942
:1018B00013441B78DBB23B617B68DA683B69B2FB9F
:1018C000F3F27B681A612437BD465DF8047B7047EC
:1018D0000010024000127A0000093D0014000020B0
:1018E0002400002080B483B000AF78600B46FB700A
:1018F000FB78002B06D0094B084A91697A680A43A5
:101900009A6106E0054B054A91697A68D2430A401C
:101910009A610C37BD465DF8047B704700100240A9
:1019200080B483B000AF78600B46FB70FB78002B6F
:1019300006D0094B084AD1697A680A43DA6106E0A1
:10194000054B054AD1697A68D2430A40DA610C37FF
:10195000BD465DF8047B70470010024080B58CB036
:1019600000AF786039600023FB620023BB62002374
:101970007B6200233B620023FB617B68FB617B6829
:101980001B8A9BB2FB62FA6A4CF6FF731340FB6240
:101990003B68DB88FA6A1343FB62FB6A9AB27B6896
:1019A0001A827B689B899BB2FB62FA6A4EF6F3133C
:1019B0001340FB623B689A883B681B8913439AB2C9
:1019C0003B685B8913439BB2FA6A1343FB62FB6A71
:1019D0009AB27B689A817B689B8A9BB2FB62FA6AA7
:1019E0004FF6FF431340FB623B689B89FA6A13433F
:1019F000FB62FB6A9AB27B689A8207F10803184679
:101A0000FFF7C2FEFA69304B9A4202D17B69BB6292
:101A100001E03B69BB627B689B899BB29BB21BB2B6
:101A2000002B0CDABA6A13469B0013449A001A443E
:101A30003B681B685B00B2FBF3F37B620BE0BA6AA6
:101A400013469B0013449A001A443B681B689B0092
:101A5000B2FBF3F37B627A6A1C4BA3FB02135B09B4
:101A60001B01FB62FB6A1B09642202FB03F37A6A17
:101A7000D31A3B627B689B899BB29BB21BB2002B43
:101A80000DDA3B6ADB0003F13202104BA3FB0213B9
:101A90005B0903F00703FA6A1343FB620CE03B6A3D
:101AA0001B0103F13202094BA3FB02135B0903F094
:101AB0000F03FA6A1343FB62FB6A9AB27B681A81CE
:101AC0003037BD4680BD00BF003801401F85EB5157
:101AD00080B483B000AF78600B46FB70FB78002BBE
:101AE00008D07B689B899BB243F400539AB27B6811
:101AF0009A8107E07B689B899BB223F400539AB2DA
:101B00007B689A810C37BD465DF8047B704700BF47
:101B100080B483B000AF78600B467B807B88C3F3D2
:101B200008039AB27B689A800C37BD465DF8047B47
:101B3000704700BF80B483B000AF78607B689B883B
:101B40009BB2C3F308039BB218460C37BD465DF841
:101B5000047B704780B485B000AF78600B467B8013
:101B60000023FB737B681B889AB27B8813409BB26F
:101B7000002B02D00123FB7301E00023FB73FB7BEE
:101B800018461437BD465DF8047B704780B500AF3A
:101B900001200121FFF7C4FE02200121FFF7C0FE52
:101BA00000F004F800F022F880BD00BF80B582B0DC
:101BB00000AF0D200121FFF795FEC323BB80182342
:101BC000FB710323BB713B1D06481946FFF738F82C
:101BD0000323BB803B1D04481946FFF731F8083743
:101BE000BD4680BD00080140000C014080B588B0B2
:101BF00000AF4FF47A733B83384B1A68384BA3FB22
:101C000002135B0D9BB2013B9BB2BB8200237B8323
:101C10000023FB8207F114034FF080401946FEF7C2
:101C200081FA07F114032F481946FEF77BFA602367
:101C3000BB800123FB8000237B810023BB813B1DF4
:101C40004FF080401946FEF7E9FA4FF08040082136
:101C5000FEF726FD3B1D4FF080401946FEF76AFB5C
:101C60004FF080400821FEF737FD3B1D1D48194607
:101C7000FEF7D4FA1B480821FEF712FD3B1D194858
:101C80001946FEF757FB17480821FEF725FD3B1DB7
:101C900014481946FEF7D6FB12480821FEF73AFD14
:101CA0003B1D10481946FEF753FC0E480821FEF76D
:101CB0004DFD4FF080400121FEF7D2FC0948012183
:101CC000FEF7CEFC4FF080400121FEF7A9FC05484D
:101CD0000121FEF7A5FC2037BD4680BD0000002095
:101CE000819F5E160004004080B582B000AF78602E
:101CF000786800F079F8034632337868194600F0C6
:101D00001FF8786800F070F8034618460837BD469B
:101D100080BD00BF80B582B000AF7860786800F009
:101D200063F80346323B7868194600F009F8786892
:101D300000F05AF8034618460837BD4680BD00BF7C
:101D400080B483B000AF786039603B68B3F57A7FC8
:101D500041DC3B68002B3EDB7B68002B3BDD7B6876
:101D6000062B38DC1E4B7A68396843F822107B68F2
:101D7000013B052B2FD801A252F823F0951D000836
:101D8000A11D0008AD1D0008B71D0008C11D0008F9
:101D9000CB1D00084FF080433A6892B29A861AE051
:101DA0004FF080433A6892B21A8714E00D4B3A68BC
:101DB00092B29A860FE00B4B3A6892B21A870AE009
:101DC000084B3A6892B29A8705E0064B3A6892B29D
:101DD000A3F8402000BF0C37BD465DF8047B704778
:101DE000940000200004004080B483B000AF78600D
:101DF000044B7A6853F8223018460C37BD465DF81C
:101E0000047B70479400002080B487B000AF7860F6
:101E100000237B6100233B610F23FB607B68DB7841
:101E2000002B38D0264BDB68DB4303F4E0631B0A4E
:101E30007B617B69C3F104033B617B69FA6822FA29
:101E400003F3FB607B685B781A463B6902FA03F395
:101E50007B617B689B781A46FB6813407A69134361
:101E60007B617B691B017B6116497B681B787A6902
:101E7000D2B20B4483F80023124B7A6812785209CD
:101E8000D2B27968097801F01F01012000FA01F14E
:101E900043F822100EE00B4B7A6812785209D2B246
:101EA0007968097801F01F01012000FA01F1203260
:101EB00043F822101C37BD465DF8047B704700BF15
:101EC00000ED00E000E100E080B500AF00F004F8B4
:101ED00000F00AF880BD00BF80B500AF1D200121D1
:101EE000FFF700FD80BD00BF80B582B000AF4FF4AA
:101EF0000073BB801823FB710323BB713B1D1C487F
:101F00001946FEF79DFE4FF48063BB800423FB71EE
:101F10003B1D17481946FEF793FE0423BB80182388
:101F2000FB710323BB713B1D11481946FEF788FE68
:101F30000823BB800423FB713B1D0D481946FEF7A7
:101F40007FFE1023FB710323BB714FF41163BB8031
:101F50003B1D07481946FEF773FE3023BB803B1D2F
:101F600004481946FEF76CFE0837BD4680BD00BF29
:101F7000000801400010014080B500AF4FF48040E0
:101F80000121FFF7AFFC4FF400300121FFF7C8FC3F
:101F900000F004F800F020F880BD00BF80B584B0E8
:101FA00000AF4DF6C0233B600023BB800023FB80C5
:101FB00000233B810023BB810C237B813B460548EA
:101FC0001946FFF7CBFC03480121FFF781FD1037CD
:101FD000BD4680BD0038014080B584B000AF4FF4ED
:101FE000FA333B600023BB800023FB8000233B814E
:101FF0000023BB810C237B813B4605481946FFF734
:10200000ADFC03480121FFF763FD1037BD4680BDDD
:042010000044004048
:1020140000366E010000000000000000010203040D
:10202400060708090000000001020304010203047A
:08203400060708090204060872
:0400000508000000EF
:00000001FF
