:020000040800F2
:100000004005002049070008A9070008A9070008C3
:10001000A9070008A9070008A907000800000000B8
:10002000000000000000000000000000A907000818
:10003000A907000800000000A9070008A907000898
:10004000A9070008A9070008A9070008A9070008D0
:10005000A9070008A9070008A9070008A9070008C0
:10006000A9070008A9070008A9070008A9070008B0
:10007000A9070008A9070008A9070008A9070008A0
:10008000A9070008A9070008A90700080000000048
:10009000000000000000000000000000A9070008A8
:1000A000A9070008A9070008A9070008A907000870
:1000B000A9070008A9070008A9070008A907000860
:1000C000A9070008A9070008A9070008A907000850
:1000D000A9070008D50D0008A9070008A90700080E
:1000E000A9070008A9070008A907000800000000E8
:1000F0000000000000000000000000000000000000
:1001000000000000000000000000000000000000EF
:100110000000000000000000A9070008A90700086F
:100120005FF808F180B485B000AF786039600023D3
:10013000FB817B681B88FB817A682E4B9A4213D027
:100140007A682D4B9A420FD07B68B3F1804F0BD069
:100150007A682A4B9A4207D07A68294B9A4203D090
:100160007A68284B9A4208D1FB8923F07003FB81FF
:100170003B685A88FB891343FB817A68224B9A4279
:100180000CD07A68214B9A4208D0FB8923F4407343
:10019000FB813B68DA88FB891343FB817B68FA8922
:1001A0001A803B689A887B689A853B681A887B68C6
:1001B0001A857A680F4B9A420FD07A680E4B9A4292
:1001C0000BD07A68124B9A4207D07A68114B9A4248
:1001D00003D07A68104B9A4204D13B681B7A1A46C6
:1001E0007B681A867B6801229A821437BD465DF8C7
:1001F000047B7047002C01400034014000040040A3
:1002000000080040000C00400010004000140040B6
:1002100000400140004401400048014080B485B0E6
:1002200000AF7860396000237B810023FB810023CD
:10023000BB817B681B8C9BB223F001039AB27B6865
:100240001A847B681B8CFB817B689B88BB817B68E5
:100250001B8B7B817B8923F070037B817B8923F05F
:1002600003037B813B681A887B8913437B81FB896D
:1002700023F00203FB813B681A89FB891343FB814E
:100280003B685A88FB891343FB817A68244B9A4266
:100290000FD07A68234B9A420BD07A68224B9A424D
:1002A00007D07A68214B9A4203D07A68204B9A4251
:1002B00023D1FB8923F00803FB813B685A89FB8922
:1002C0001343FB81FB8923F00403FB813B689A887D
:1002D000FB891343FB81BB8923F48073BB81BB89FA
:1002E00023F40073BB813B689A89BB891343BB81AC
:1002F0003B68DA89BB891343BB817B68BA899A80E2
:100300007B687A891A833B68DA887B689A867B687F
:10031000FA891A841437BD465DF8047B704700BF24
:10032000002C0140003401400040014000440140E5
:100330000048014080B485B000AF78603960002388
:100340007B810023FB810023BB817B681B8C9BB2DC
:1003500023F010039AB27B681A847B681B8CFB81A4
:100360007B689B88BB817B681B8B7B817B8923F4AB
:10037000E0437B817B8923F440737B813B681B884E
:100380001B029AB27B8913437B81FB8923F02003F4
:10039000FB813B681B891B019AB2FB891343FB81DC
:1003A0003B685B881B019AB2FB891343FB817A6827
:1003B000224B9A4203D07A68214B9A422BD1FB8977
:1003C00023F08003FB813B685B891B019AB2FB89A8
:1003D0001343FB81FB8923F04003FB813B689B882F
:1003E0001B019AB2FB891343FB81BB8923F4806311
:1003F000BB81BB8923F40063BB813B689B899B0065
:100400009AB2BB891343BB813B68DB899B009AB2DC
:10041000BB891343BB817B68BA899A807B687A89E0
:100420001A833B68DA887B681A877B68FA891A84A2
:100430001437BD465DF8047B704700BF002C0140B7
:100440000034014080B485B000AF7860396000238B
:100450007B810023FB810023BB817B681B8C9BB2CB
:1004600023F480739AB27B681A847B681B8CFB81AF
:100470007B689B88BB817B689B8B7B817B8923F01E
:1004800070037B817B8923F003037B813B681A889F
:100490007B8913437B81FB8923F40073FB813B68D9
:1004A0001B891B029AB2FB891343FB813B685B8863
:1004B0001B029AB2FB891343FB817A68224B9A4252
:1004C00003D07A68214B9A422BD1FB8923F4006335
:1004D000FB813B685B891B029AB2FB891343FB815A
:1004E000FB8923F48063FB813B689B881B029AB2E3
:1004F000FB891343FB81BB8923F48053BB81BB89F8
:1005000023F40053BB813B689B891B019AB2BB89D2
:100510001343BB813B68DB891B019AB2BB89134340
:10052000BB817B68BA899A807B687A899A833B68A9
:10053000DA887B689A877B68FA891A841437BD4603
:100540005DF8047B704700BF002C0140003401407F
:1005500080B485B000AF786039600023BB81002390
:100560007B810023FB817B681B8C9BB223F480532F
:100570009AB27B681A847B681B8C7B817B689B8822
:10058000FB817B689B8BBB81BB8923F4E043BB81F0
:10059000BB8923F44073BB813B681B881B029AB262
:1005A000BB891343BB817B8923F400537B813B6868
:1005B0001B891B039AB27B8913437B813B685B8851
:1005C0001B039AB27B8913437B817A68124B9A4250
:1005D00003D07A68114B9A420AD1FB8923F48043F5
:1005E000FB813B689B899B019AB2FB891343FB818A
:1005F0007B68FA899A807B68BA899A833B68DA8833
:100600007B68A3F840207B687A891A841437BD463A
:100610005DF8047B704700BF002C014000340140AE
:1006200080B483B000AF78600B46FB70FB78002B82
:1006300008D07B681B889BB243F001039AB27B68A9
:100640001A8007E07B681B889BB223F001039AB2F3
:100650007B681A800C37BD465DF8047B704700BF8D
:1006600080B485B000AF78600B467B800023FB81AF
:100670007B681B8BFB81FB8923F00803FB81FA89D4
:100680007B881343FB817B68FA891A831437BD4644
:100690005DF8047B704700BF80B485B000AF786020
:1006A0000B467B800023FB817B681B8BFB81FB89D6
:1006B00023F40063FB817B881B029AB2FB891343FE
:1006C000FB817B68FA891A831437BD465DF8047B89
:1006D000704700BF80B485B000AF78600B467B8068
:1006E0000023FB817B689B8BFB81FB8923F0080344
:1006F000FB81FA897B881343FB817B68FA899A83A3
:100700001437BD465DF8047B704700BF80B485B0E8
:1007100000AF78600B467B800023FB817B689B8B5E
:10072000FB81FB8923F40063FB817B881B029AB267
:10073000FB891343FB817B68FA899A831437BD4692
:100740005DF8047B704700BF80B582B000AF114BED
:100750007B60114B3B6007E03B681A1D3A607A688A
:10076000111D796012681A603A680C4B9A42F3D3F3
:100770000B480C494FF000028842B8BF40F8042BE8
:10078000FFF6FAAF00F014F800F0A4F90837BD4600
:1007900080BD00BFA420000800000020A0000020B1
:1007A000A00000203C01002080B400AFFEE700BFA5
:1007B00080B500AF164B164A126842F001021A606B
:1007C000134A134B5968134B0B405360104A104B9C
:1007D0001B6823F0847323F4803313600C4B0C4AA2
:1007E000126822F480221A60094B094A526822F4E6
:1007F000FE025A60064B4FF41F029A60044B00221F
:10080000DA6200F00BF8044B4FF000629A6080BD92
:10081000001002400000FFF800ED00E080B500AFDE
:1008200000F002F880BD00BF80B483B000AF0023A9
:100830007B6000233B60304B2F4A126842F48032C9
:100840001A602D4B1B6803F400333B607B68013357
:100850007B603B68002B03D17B68B3F5A06FF0D1C0
:10086000254B1B6803F40033002B02D001233B60AF
:1008700001E000233B603B68012B37D11E4B1E4A31
:1008800052685A601C4B1C4A52685A601A4B1A4AEA
:1008900052685A60184B184A526822F47C125A6007
:1008A000154B154A526842F498125A60124B124A7C
:1008B000126842F080721A6000BF0F4B1B6803F091
:1008C0000073002BF9D00C4B0B4A526822F0030244
:1008D0005A60094B084A526842F002025A6000BF4F
:1008E000054B5B6803F00C03082BF9D10C37BD46B0
:1008F0005DF8047B704700BF0010024080B489B0EF
:1009000000AF786039600023FB6100233B61002366
:10091000BB610023FB6000237B610023BB603B685D
:10092000DB7803F00F03FB613B68DB7803F0100317
:10093000002B04D03B689B78FA691343FB613B684A
:100940001B88DBB2002B44D07B681B687B610023D3
:10095000BB6138E0BB69012202FA03F3FB603B682C
:100960001B881A46FB6813403B613A69FB689A4250
:1009700026D1BB699B00FB60FB680F2202FA03F3E0
:10098000BB60BB68DB437A6913407B61FB68FA6933
:1009900002FA03F37A6913437B613B68DB78282B07
:1009A00005D1BB6901229A407B685A6108E03B6827
:1009B000DB78482B04D1BB6901229A407B681A611D
:1009C000BB690133BB61BB69072BC3D97B687A69FB
:1009D0001A603B681B88FF2B46D97B685B687B618C
:1009E0000023BB613AE0BB690833012202FA03F33A
:1009F000FB603B681B881A46FB6813403B613A6901
:100A0000FB689A4227D1BB699B00FB60FB680F2201
:100A100002FA03F3BB60BB68DB437A6913407B6176
:100A2000FB68FA6902FA03F37A6913437B613B6856
:100A3000DB78282B05D1BB69083301229A407B68FB
:100A40005A613B68DB78482B05D1BB69083301222A
:100A50009A407B681A61BB690133BB61BB69072B94
:100A6000C1D97B687A695A602437BD465DF8047B3A
:100A7000704700BF80B483B000AF786013460A4669
:100A80007A807B707B78002B03D07A887B681A6130
:100A900002E07A887B685A610C37BD465DF8047BBA
:100AA000704700BF80B582B000AF1020012100F078
:100AB00055F94FF44073BB801023FB710323BB71C6
:100AC0003B1D03481946FFF719FF0837BD4680BD97
:100AD0000010014080B500AF00F00AFCFEE700BF47
:100AE00080B582B000AF00237B6000237B6010E004
:100AF0007B68DBB2184600F015FA0346184600F092
:100B000013F80146064B7A6843F822107B680133DC
:100B10007B607B680A2BEBDD0837BD4680BD00BFDC
:100B2000000000200000000080B584B000AF034644
:100B3000FB71FB79FB60F86801F014F802460B4684
:100B4000104619460EA3D3E9002301F071F80246BE
:100B50000B46104619464FF000020B4B00F0B4FE56
:100B600002460B461046194601F074FA0346FB6034
:100B7000FB6818461037BD4680BD00BFAFF300804C
:100B80009A9999999999E93F00005940AFF30080EB
:100B900080B500AFFFF7A4FF00F094FD002000F047
:100BA000D1FD0346184600F0A1FC012000F0CAFD6B
:100BB0000346184600F0AEFC022000F0C3FD0346D9
:100BC000184600F0BBFC032000F0BCFD03461846AD
:100BD00000F0C8FC042000F0B5FD0346184600F004
:100BE000D5FC052000F0AEFD0346184600F0E2FCFF
:100BF000062000F0A7FD0346184600F0EFFC80BD7C
:100C000080B489B000AF78600023FB610023BB6132
:100C100000237B6100233B610023FB604A4B5B6840
:100C200003F00C03FB61FB69042B07D0082B09D0F0
:100C3000002B2FD17B68454A1A602FE07B68434A1E
:100C40001A602BE0404B5B6803F47013BB613E4BB2
:100C50005B6803F480337B61BB699B0C0233BB612F
:100C60007B69002B06D1BB69394A02FB03F27B6822
:100C70001A6013E0344BDB6A03F00F030133FB60AF
:100C8000324AFB68B2FBF3F3BA6902FB03F27B68FA
:100C90001A6003E07B682D4A1A6000BF2A4B5B682C
:100CA00003F0F003FB61FB691B09FB61294AFB6947
:100CB00013441B78DBB23B617B681A683B69DA40FE
:100CC0007B685A60204B5B6803F4E063FB61FB695F
:100CD0001B0AFB611F4AFB6913441B78DBB23B61B3
:100CE0007B685A683B69DA407B689A60164B5B68A0
:100CF00003F46053FB61FB69DB0AFB61154AFB6986
:100D000013441B78DBB23B617B685A683B69DA406D
:100D10007B68DA600C4B5B6803F44043FB61FB6962
:100D20009B0BFB610C4AFB6913441B78DBB23B61F4
:100D30007B68DA683B69B2FBF3F27B681A6124379F
:100D4000BD465DF8047B70470010024000127A0037
:100D500000093D00400000205000002080B483B016
:100D600000AF78600B46FB70FB78002B06D0094B78
:100D7000084A91697A680A439A6106E0054B054A78
:100D800091697A68D2430A409A610C37BD465DF892
:100D9000047B70470010024080B483B000AF7860DD
:100DA0000B46FB70FB78002B06D0094B084AD16933
:100DB0007A680A43DA6106E0054B054AD1697A6828
:100DC000D2430A40DA610C37BD465DF8047B7047B8
:100DD0000010024080B582B000AF4A4B1B889BB226
:100DE00003F02003002B2DD0464800F055FA0346AF
:100DF0007B60454B1B781A467B689A4206D1434B71
:100E000001221A70424B00221A701BE0414B1B78E2
:100E10001A467B689A4203D03D4B1B780A2B03D9B4
:100E20003D4B01221A700DE0384B1B78002B09D086
:100E3000374B1B785A1CD1B2354A11707A68D1B23F
:100E4000364AD154344B1B78002B58D034484FF4D9
:100E500000610122FFF70EFE00BF2A48402100F08A
:100E60002BFA0346002BF8D0274B1B782548194650
:100E700000F000FA00BF2348402100F01DFA0346AD
:100E8000002BF8D0224B00221A7015E0204B1B7863
:100E9000224AD35C1B48194600F0ECF900BF194800
:100EA000402100F009FA0346002BF8D0184B1B78BC
:100EB0000133DAB2164B1A70154B1B78062BE5D9A5
:100EC000144B1B780F48194600F0D4F900BF0D48A9
:100ED000402100F0F1F90346002BF8D010484FF400
:100EE00000610022FFF7C6FD084B00221A700A4B72
:100EF00000221A70064B00221A70FFF749FE0837CD
:100F0000BD4680BD0038014054000020A0000020F4
:100F1000A200002055000020A1000020A800002011
:100F20000008014080B483B000AF0346FB71FB7939
:100F30000B2B01D9002302E0FB79044AD35C18464D
:100F40000C37BD465DF8047B704700BFA800002049
:100F500080B500AF4FF480400121FFF7FFFE00F0A5
:100F600003F800F04BF880BD80B586B000AF0420D8
:100F70000121FFF7F3FE4FF40073BB821823FB75CA
:100F80000323BB7507F114031A481946FFF7B6FC93
:100F90004FF48063BB820423FB7507F114031548EB
:100FA0001946FFF7ABFC1023FB750323BB754FF409
:100FB0000063BB8207F114030E481946FFF79EFC3D
:100FC0004FF4FA337B6000233B8100237B810023B5
:100FD000BB8100233B820C23FB813B1D0648194645
:100FE00000F026F80448012100F0DCF81837BD466F
:100FF00080BD00BF000801400038014080B582B0CC
:1010000000AF25233B7100237B710023BB710123BB
:10101000FB713B1D184600F0F5FA044840F22551DB
:10102000012200F0DFF80837BD4680BD00380140DE
:1010300080B58CB000AF786039600023FB6200237C
:10104000BB6200237B6200233B620023FB617B6861
:10105000FB617B681B8A9BB2FB62FA6A4CF6FF73EA
:101060001340FB623B68DB88FA6A1343FB62FB6A4E
:101070009AB27B681A827B689B899BB2FB62FA6A90
:101080004EF6F3131340FB623B689A883B681B895A
:1010900013439AB23B685B8913439BB2FA6A1343CA
:1010A000FB62FB6A9AB27B689A817B689B8A9BB2DF
:1010B000FB62FA6A4FF6FF431340FB623B689B8971
:1010C000FA6A1343FB62FB6A9AB27B689A8207F161
:1010D00008031846FFF794FDFA69304B9A4202D193
:1010E0007B69BB6201E03B69BB627B689B899BB209
:1010F0009BB21BB2002B0CDABA6A13469B00134456
:101100009A001A443B681B685B00B2FBF3F37B62F6
:101110000BE0BA6A13469B0013449A001A443B68DA
:101120001B689B00B2FBF3F37B627A6A1C4BA3FB48
:1011300002135B091B01FB62FB6A1B09642202FBB1
:1011400003F37A6AD31A3B627B689B899BB29BB29A
:101150001BB2002B0DDA3B6ADB0003F13202104BAD
:10116000A3FB02135B0903F00703FA6A1343FB6254
:101170000CE03B6A1B0103F13202094BA3FB021393
:101180005B0903F00F03FA6A1343FB62FB6A9AB22E
:101190007B681A813037BD4680BD00BF00380140F2
:1011A0001F85EB5180B483B000AF78600B46FB70B5
:1011B000FB78002B08D07B689B899BB243F40053DB
:1011C0009AB27B689A8107E07B689B899BB223F483
:1011D00000539AB27B689A810C37BD465DF8047B58
:1011E000704700BF80B487B000AF786013460A46EE
:1011F0007A807B7000233B610023FB600023BB608F
:1012000000237B617B687B617B88DBB25B09DBB29F
:101210003B617B8803F01F03FB60FB68012202FA3D
:1012200003F3BB603B69012B03D17B690C337B610A
:1012300009E03B69022B03D17B6910337B6102E03B
:101240007B6914337B617B78002B06D07B697A69DC
:101250001168BA680A431A6006E07B697A69116806
:10126000BA68D2430A401A601C37BD465DF8047B59
:10127000704700BF80B483B000AF78600B467B80BE
:101280007B88C3F308039AB27B689A800C37BD460B
:101290005DF8047B704700BF80B483B000AF786016
:1012A0007B689B889BB2C3F308039BB218460C373C
:1012B000BD465DF8047B704780B485B000AF7860B0
:1012C0000B467B800023FB737B681B889AB27B886C
:1012D00013409BB2002B02D00123FB7301E00023DB
:1012E000FB73FB7B18461437BD465DF8047B7047E3
:1012F00080B500AFFFF72CFE00F004F8FFF7D2FB3B
:1013000080BD00BF80B500AF00F0C0F800F0CAF8A3
:10131000524B44F61F621A80514B17221A804F4BD2
:101320001A88504B9A804E4B1A884E4B1A804D4B60
:101330000022DA804B4B00225A804FF0804049490E
:10134000FEF7F0FE48484749FEF7ECFE474B6022A7
:101350001A80464B01225A80454B1A88434BDA804B
:10136000424B00221A814FF080404049FEF756FF61
:101370004FF080400821FFF773F93C4B01225A805F
:101380003C4B1A88394BDA804FF080403749FEF7E2
:10139000D1FF4FF080400821FFF77EF9334B012247
:1013A0005A80354B1A88314BDA804FF080402F49F4
:1013B000FFF748F84FF080400821FFF78BF92B4BDF
:1013C00001225A802D4B1A88284BDA804FF080403A
:1013D0002649FFF7BDF84FF080400821FFF796F946
:1013E000224B60221A80214B01225A80244B1A88FA
:1013F0001E4BDA801D4B00221A811B481B49FEF749
:101400000DFF19480821FFF72BF9184B01225A80CC
:101410001C4B1A88154BDA8013481449FEF78AFFD3
:1014200011480821FFF738F9104B01225A80164B5A
:101430001A880E4BDA800C480C49FFF703F80A486B
:101440000821FFF747F94FF080400121FFF7E8F846
:1014500005480121FFF7E4F880BD00BFA40000208B
:10146000A6000020BC00002000040040C8000020AE
:101470003000002032000020340000203600002020
:10148000380000203A0000203C00002080B500AF6A
:1014900001200121FFF780FC02200121FFF77CFCE5
:1014A00080BD00BF80B582B000AF0D200121FFF7E5
:1014B00055FCCF23BB801823FB710323BB713B1D5D
:1014C00008481946FFF71AFA0123BB801823FB715D
:1014D0000323BB713B1D04481946FFF70FFA083779
:1014E000BD4680BD00080140000C014080B483B0BF
:1014F00000AF0346FB80064BFA881A804FF080430A
:10150000FA889A860C37BD465DF8047B704700BFA9
:101510003000002080B483B000AF0346FB80064B50
:10152000FA881A804FF08043FA881A870C37BD4634
:101530005DF8047B704700BF3200002080B483B0A8
:1015400000AF0346FB80064BFA881A804FF08043B9
:10155000FA889A870C37BD465DF8047B704700BF58
:101560003400002080B483B000AF0346FB80064BFC
:10157000FA881A804FF08043FA88A3F840200C378D
:10158000BD465DF8047B70473600002080B483B010
:1015900000AF0346FB80054BFA881A80044BFA889B
:1015A0009A860C37BD465DF8047B704738000020F2
:1015B0000004004080B483B000AF0346FB80054BBD
:1015C000FA881A80044BFA881A870C37BD465DF8F2
:1015D000047B70473A0000200004004080B483B0D0
:1015E00000AF0346FB80054BFA881A80044BFA884B
:1015F0009A870C37BD465DF8047B70473C0000209D
:101600000004004080B487B000AF786000237B61A5
:1016100000233B610F23FB607B68DB78002B38D015
:10162000264BDB68DB4303F4E0631B0A7B617B69C9
:10163000C3F104033B617B69FA6822FA03F3FB60A0
:101640007B685B781A463B6902FA03F37B617B682F
:101650009B781A46FB6813407A6913437B617B6968
:101660001B017B6116497B681B787A69D2B20B44F7
:1016700083F80023124B7A6812785209D2B2796843
:10168000097801F01F01012000FA01F143F822104E
:101690000EE00B4B7A6812785209D2B27968097859
:1016A00001F01F01012000FA01F1203243F822105D
:1016B0001C37BD465DF8047B704700BF00ED00E0BD
:1016C00000E100E080B582B000AF00F04BF800F020
:1016D000D5F800237B6029E07B68032B11DC164BD7
:1016E0007A68083253F822309BB21A4692001344AB
:1016F0009BB203F2DC5399B2104B7A6823F81210B4
:1017000011E07B681A1F0E4B063253F822309BB251
:101710001A46920013449BB203F2DC5399B2074B72
:101720007A6823F812107B6801337B607B68062B94
:10173000D2DD0837BD4680BD0C010020FC00002032
:10174000D800002080B483B000AF7860044B7A6882
:1017500033F8123018460C37BD465DF8047B7047ED
:10176000FC00002080B487B000AF0023FB600023A2
:101770007B614FE03D497A6913465B0013449B004F
:101780000B441B683A4A126802FB03F3BB603749FB
:101790007A6913465B0013449B000B4404331B68B7
:1017A000334A526802FB03F37B6030497A6913467F
:1017B0005B0013449B000B4408331B682C4A92685F
:1017C00002FB03F33B60BA687B681A443B68D1189C
:1017D000284B7A6943F82210264B7A6953F8223055
:1017E00083EAE371A1EBE371224B7A69043243F897
:1017F0002210204B7A69043253F82220FB689A4267
:1018000005DD1C4B7A69043253F82230FB607B699A
:1018100001337B617B69032BACDDFB68642B08DD46
:10182000FB68154A82FB03125211DB17D31AFB60C7
:1018300001E00123FB6000233B610EE00D4B3A69A0
:1018400053F82220FB6892FBF3F10A4B3A69083205
:1018500043F822103B6901333B613B69032BEDDD0B
:101860001C37BD465DF8047B704700BF5800002060
:10187000000000200C0100201F85EB5180B400AF58
:101880000D4BDB685B42DA0F13445B101A460B4BBF
:101890009A61094BDB685B42DA0F13445B101A460E
:1018A000064BDA61044BDB685A42044B1A62BD46B0
:1018B0005DF8047B704700BF00000020D8000020C6
:1018C00081F0004102E000BF83F0004330B54FEAF1
:1018D00041044FEA430594EA050F08BF90EA020F5E
:1018E0001FBF54EA000C55EA020C7FEA645C7FEAF1
:1018F000655C00F0E2804FEA5454D4EB5555B8BF14
:101900006D420CDD2C4480EA020281EA030382EA84
:10191000000083EA010180EA020281EA0303362D16
:1019200088BF30BD11F0004F4FEA01314FF4801CE9
:101930004CEA113102D0404261EB410113F0004FFB
:101940004FEA03334CEA133302D0524263EB4303B2
:1019500094EA050F00F0A780A4F10104D5F1200E50
:101960000DDB02FA0EFC22FA05F2801841F10001AB
:1019700003FA0EF2801843FA05F359410EE0A5F17F
:1019800020050EF1200E012A03FA0EFC28BF4CF0B0
:10199000020C43FA05F3C01851EBE37101F0004566
:1019A00007D54FF0000EDCF1000C7EEB00006EEB73
:1019B0000101B1F5801F1BD3B1F5001F0CD34908FD
:1019C0005FEA30004FEA3C0C04F101044FEA445254
:1019D00012F5800F80F09A80BCF1004F08BF5FEADB
:1019E000500C50F1000041EB045141EA050130BDBB
:1019F0005FEA4C0C404141EB010111F4801FA4F15E
:101A00000104E9D191F0000F04BF01460020B1FAB2
:101A100081F308BF2033A3F10B03B3F120020CDAEA
:101A20000C3208DD02F1140CC2F10C0201FA0CF0C8
:101A300021FA02F10CE002F11402D8BFC2F1200C2D
:101A400001FA02F120FA0CFCDCBF41EA0C019040E3
:101A5000E41AA2BF01EB0451294330BD6FEA04042C
:101A60001F3C1CDA0C340EDC04F11404C4F1200217
:101A700020FA04F001FA02F340EA030021FA04F329
:101A800045EA030130BDC4F10C04C4F1200220FA80
:101A900002F001FA04F340EA0300294630BD21FABE
:101AA00004F0294630BD94F0000F83F4801306BF84
:101AB00081F480110134013D4EE77FEA645C18BF78
:101AC0007FEA655C29D094EA050F08BF90EA020F0F
:101AD00005D054EA000C04BF1946104630BD91EA07
:101AE000030F1EBF0021002030BD5FEA545C05D10A
:101AF0004000494128BF41F0004130BD14F5800449
:101B00003CBF01F5801130BD01F0004545F0FE41BC
:101B100041F470014FF0000030BD7FEA645C1ABFF1
:101B2000194610467FEA655C1CBF0B46024650EA28
:101B3000013406BF52EA033591EA030F41F4002154
:101B400030BD00BF90F0000F04BF0021704730B5DA
:101B50004FF4806404F132044FF000054FF00001AF
:101B600050E700BF90F0000F04BF0021704730B570
:101B70004FF4806404F1320410F0004548BF404245
:101B80004FF000013EE700BF42004FEAE2014FEA9A
:101B900031014FEA02701FBF12F07F4393F07F4F75
:101BA00081F06051704792F0000F14BF93F07F4FA7
:101BB000704730B54FF4607401F0004521F00041EA
:101BC00020E700BF50EA010208BF704730B54FF070
:101BD00000050AE050EA010208BF704730B511F075
:101BE000004502D5404261EB41014FF4806404F1AD
:101BF00032045FEA915C3FF4DCAE4FF003025FEA2F
:101C0000DC0C18BF03325FEADC0C18BF033202EBB6
:101C1000DC02C2F1200300FA03FC20FA02F001FA10
:101C200003FE40EA0E0021FA02F11444C1E600BFAF
:101C300070B54FF0FF0C4CF4E06C1CEA11541DBF62
:101C40001CEA135594EA0C0F95EA0C0F00F0DEF82D
:101C50002C4481EA030621EA4C5123EA4C5350EA12
:101C6000013518BF52EA033541F4801143F4801363
:101C700038D0A0FB02CE4FF00005E1FB02E506F0F4
:101C80000042E0FB03E54FF00006E1FB03569CF049
:101C9000000F18BF4EF0010EA4F1FF04B6F5007F4F
:101CA00064F5407404D25FEA4E0E6D4146EB0606C1
:101CB00042EAC62141EA55514FEAC52040EA5E504A
:101CC0004FEACE2EB4F1FD0C88BFBCF5E06F1ED8F4
:101CD000BEF1004F08BF5FEA500E50F1000041EB2B
:101CE000045170BD06F0004646EA010140EA0200D8
:101CF00081EA0301B4EB5C04C2BFD4EB0C0541EAFA
:101D0000045170BD41F480114FF0000E013C00F30E
:101D1000AB8014F1360FDEBF002001F0004170BD32
:101D2000C4F10004203C35DA0C341BDC04F114044B
:101D3000C4F1200500FA05F320FA04F001FA05F2D7
:101D400040EA020001F0004221F0004110EBD370A4
:101D500021FA04F642EB06015EEA430E08BF20EAD0
:101D6000D37070BDC4F10C04C4F1200500FA04F373
:101D700020FA05F001FA04F240EA020001F0004105
:101D800010EBD37041F100015EEA430E08BF20EA78
:101D9000D37070BDC4F1200500FA05F24EEA020EC0
:101DA00020FA04F301FA05F243EA020321FA04F0EF
:101DB00001F0004121FA04F220EA020000EBD370A6
:101DC0005EEA430E08BF20EAD37070BD94F0000FA6
:101DD0000FD101F00046400041EB010111F4801FDA
:101DE00008BF013CF7D041EA060195F0000F18BF8B
:101DF000704703F00046520043EB030313F4801FC7
:101E000008BF013DF7D043EA0603704794EA0C0F80
:101E10000CEA135518BF95EA0C0F0CD050EA410696
:101E200018BF52EA4306D1D181EA030101F0004113
:101E30004FF0000070BD50EA410606BF104619463B
:101E400052EA430619D094EA0C0F02D150EA013647
:101E500013D195EA0C0F05D152EA03361CBF104688
:101E600019460AD181EA030101F0004141F0FE4127
:101E700041F470014FF0000070BD41F0FE4141F4AB
:101E8000780170BD70B54FF0FF0C4CF4E06C1CEAAB
:101E900011541DBF1CEA135594EA0C0F95EA0C0F60
:101EA00000F0A7F8A4EB050481EA030E52EA03351B
:101EB0004FEA013100F088804FEA03334FF080553C
:101EC00045EA131343EA12634FEA022245EA111569
:101ED00045EA10654FEA00260EF000419D4208BF1A
:101EE000964244F1FD0404F5407402D25B084FEAC7
:101EF0003202B61A65EB03055B084FEA32024FF473
:101F000080104FF4002CB6EB020E75EB030E22BFCF
:101F1000B61A754640EA0C005B084FEA3202B6EB8F
:101F2000020E75EB030E22BFB61A754640EA5C003E
:101F30005B084FEA3202B6EB020E75EB030E22BFCE
:101F4000B61A754640EA9C005B084FEA3202B6EBCF
:101F5000020E75EB030E22BFB61A754640EADC008E
:101F600055EA060E18D04FEA051545EA16754FEAF0
:101F700006164FEAC30343EA52734FEAC2025FEA0E
:101F80001C1CC0D111F4801F0BD141EA00014FF09D
:101F900000004FF0004CB6E711F4801F04BF01436E
:101FA0000020B4F1FD0C88BFBCF5E06F3FF6AFAE8A
:101FB000B5EB030C04BFB6EB020C5FEA500C50F11A
:101FC000000041EB045170BD0EF0004E4EEA11319D
:101FD00014EB5C04C2BFD4EB0C0541EA045170BDA4
:101FE00041F480114FF0000E013C90E645EA060EE8
:101FF0008DE60CEA135594EA0C0F08BF95EA0C0F16
:102000003FF43BAF94EA0C0F0AD150EA01347FF45D
:1020100034AF95EA0C0F7FF425AF104619462CE734
:1020200095EA0C0F06D152EA03353FF4FDAE104697
:10203000194622E750EA410618BF52EA43067FF4E8
:10204000C5AE50EA41047FF40DAF52EA43057FF478
:10205000EBAE12E74FEA410212F5001215D211D58C
:102060006FF47873B3EB625212D94FEAC12343F095
:10207000004343EA505311F0004F23FA02F018BF17
:10208000404270474FF00000704750EA013005D1E0
:1020900011F0004008BF6FF0004070474FF00000A3
:0420A000704700BFC6
:1020A4007D0000007D0000007D0000007D00000038
:1020B400000000000000000000000000000000001C
:1020C40000000000000000000000000064000000A8
:1020D400DC05DC05DC05DC05DC05DC05DC050000D5
:1020E40000000000010203040102030406070809BA
:1020F40002040608FFFB000001000000FFFFFFFFD1
:1021040001000000FFFFFFFFFFFFFFFFFFFFFFFFD6
:102114000100000001000000FFFFFFFFFFFFFFFFC1
:1021240001000000010000000100000001000000A7
:10213400FFFFFFFF0100000000000000FFFFFFFFA2
:0400000508000000EF
:00000001FF
